{
  "contractName": "CrowdFundingWithDeadline",
  "abi": [
    {
      "constant": true,
      "inputs": [],
      "name": "name",
      "outputs": [
        {
          "name": "",
          "type": "string"
        }
      ],
      "payable": false,
      "stateMutability": "view",
      "type": "function"
    },
    {
      "constant": true,
      "inputs": [],
      "name": "beneficiary",
      "outputs": [
        {
          "name": "",
          "type": "address"
        }
      ],
      "payable": false,
      "stateMutability": "view",
      "type": "function"
    },
    {
      "constant": true,
      "inputs": [
        {
          "name": "",
          "type": "address"
        }
      ],
      "name": "amounts",
      "outputs": [
        {
          "name": "",
          "type": "uint256"
        }
      ],
      "payable": false,
      "stateMutability": "view",
      "type": "function"
    },
    {
      "constant": true,
      "inputs": [],
      "name": "fundingDeadline",
      "outputs": [
        {
          "name": "",
          "type": "uint256"
        }
      ],
      "payable": false,
      "stateMutability": "view",
      "type": "function"
    },
    {
      "constant": true,
      "inputs": [],
      "name": "collected",
      "outputs": [
        {
          "name": "",
          "type": "bool"
        }
      ],
      "payable": false,
      "stateMutability": "view",
      "type": "function"
    },
    {
      "constant": true,
      "inputs": [],
      "name": "targetAmount",
      "outputs": [
        {
          "name": "",
          "type": "uint256"
        }
      ],
      "payable": false,
      "stateMutability": "view",
      "type": "function"
    },
    {
      "constant": true,
      "inputs": [],
      "name": "state",
      "outputs": [
        {
          "name": "",
          "type": "uint8"
        }
      ],
      "payable": false,
      "stateMutability": "view",
      "type": "function"
    },
    {
      "constant": true,
      "inputs": [],
      "name": "totalCollected",
      "outputs": [
        {
          "name": "",
          "type": "uint256"
        }
      ],
      "payable": false,
      "stateMutability": "view",
      "type": "function"
    },
    {
      "inputs": [
        {
          "name": "contractName",
          "type": "string"
        },
        {
          "name": "targetAmountEth",
          "type": "uint256"
        },
        {
          "name": "durationInMin",
          "type": "uint256"
        },
        {
          "name": "beneficiaryAddress",
          "type": "address"
        }
      ],
      "payable": false,
      "stateMutability": "nonpayable",
      "type": "constructor"
    },
    {
      "anonymous": false,
      "inputs": [
        {
          "indexed": false,
          "name": "addr",
          "type": "address"
        },
        {
          "indexed": false,
          "name": "totalCollected",
          "type": "uint256"
        },
        {
          "indexed": false,
          "name": "succeeded",
          "type": "bool"
        }
      ],
      "name": "CampaignFinished",
      "type": "event"
    },
    {
      "constant": false,
      "inputs": [],
      "name": "contribute",
      "outputs": [],
      "payable": true,
      "stateMutability": "payable",
      "type": "function"
    },
    {
      "constant": false,
      "inputs": [],
      "name": "finishedCrowdFunding",
      "outputs": [],
      "payable": false,
      "stateMutability": "nonpayable",
      "type": "function"
    },
    {
      "constant": false,
      "inputs": [],
      "name": "collect",
      "outputs": [],
      "payable": false,
      "stateMutability": "nonpayable",
      "type": "function"
    },
    {
      "constant": false,
      "inputs": [],
      "name": "withdraw",
      "outputs": [],
      "payable": false,
      "stateMutability": "nonpayable",
      "type": "function"
    },
    {
      "constant": true,
      "inputs": [],
      "name": "beforeDeadline",
      "outputs": [
        {
          "name": "",
          "type": "bool"
        }
      ],
      "payable": false,
      "stateMutability": "view",
      "type": "function"
    }
  ],
  "bytecode": "0x60806040523480156200001157600080fd5b5060405162000ffd38038062000ffd833981018060405260808110156200003757600080fd5b8101908080516401000000008111156200005057600080fd5b828101905060208101848111156200006757600080fd5b81518560018202830111640100000000821117156200008557600080fd5b50509291906020018051906020019092919080519060200190929190805190602001909291905050508360009080519060200190620000c6929190620002b9565b5073__Utils_________________________________63d8916bb96001546040518263ffffffff167c01000000000000000000000000000000000000000000000000000000000281526004018082815260200191505060206040518083038186803b1580156200013557600080fd5b505af41580156200014a573d6000803e3d6000fd5b505050506040513d60208110156200016157600080fd5b810190808051906020019092919050505060018190555073__Utils_________________________________63529b380f836040518263ffffffff167c01000000000000000000000000000000000000000000000000000000000281526004018082815260200191505060206040518083038186803b158015620001e457600080fd5b505af4158015620001f9573d6000803e3d6000fd5b505050506040513d60208110156200021057600080fd5b81019080805190602001909291905050506200023a620002b1640100000000026401000000009004565b0160028190555080600360006101000a81548173ffffffffffffffffffffffffffffffffffffffff021916908373ffffffffffffffffffffffffffffffffffffffff1602179055506000600360146101000a81548160ff02191690836003811115620002a257fe5b02179055505050505062000368565b600042905090565b828054600181600116156101000203166002900490600052602060002090601f016020900481019282601f10620002fc57805160ff19168380011785556200032d565b828001600101855582156200032d579182015b828111156200032c5782518255916020019190600101906200030f565b5b5090506200033c919062000340565b5090565b6200036591905b808211156200036157600081600090555060010162000347565b5090565b90565b610c8580620003786000396000f3fe6080604052600436106100c5576000357c0100000000000000000000000000000000000000000000000000000000900463ffffffff16806306fdde03146100ca57806338af3eed1461015a5780633ccfd60b146101b157806355a3b2c1146101c857806368bc00411461022d578063796b23bb1461025c57806384bcefd414610287578063953b8fb8146102b6578063c19d93fb146102e1578063d7bb99ba1461031a578063e29eb83614610324578063e52253811461034f578063f5bfd26d14610366575b600080fd5b3480156100d657600080fd5b506100df61037d565b6040518080602001828103825283818151815260200191508051906020019080838360005b8381101561011f578082015181840152602081019050610104565b50505050905090810190601f16801561014c5780820380516001836020036101000a031916815260200191505b509250505060405180910390f35b34801561016657600080fd5b5061016f61041b565b604051808273ffffffffffffffffffffffffffffffffffffffff1673ffffffffffffffffffffffffffffffffffffffff16815260200191505060405180910390f35b3480156101bd57600080fd5b506101c6610441565b005b3480156101d457600080fd5b50610217600480360360208110156101eb57600080fd5b81019080803573ffffffffffffffffffffffffffffffffffffffff1690602001909291905050506106a3565b6040518082815260200191505060405180910390f35b34801561023957600080fd5b506102426106bb565b604051808215151515815260200191505060405180910390f35b34801561026857600080fd5b506102716106ce565b6040518082815260200191505060405180910390f35b34801561029357600080fd5b5061029c6106d4565b604051808215151515815260200191505060405180910390f35b3480156102c257600080fd5b506102cb6106e7565b6040518082815260200191505060405180910390f35b3480156102ed57600080fd5b506102f66106ed565b6040518082600381111561030657fe5b60ff16815260200191505060405180910390f35b610322610700565b005b34801561033057600080fd5b506103396108c9565b6040518082815260200191505060405180910390f35b34801561035b57600080fd5b506103646108cf565b005b34801561037257600080fd5b5061037b610a21565b005b60008054600181600116156101000203166002900480601f0160208091040260200160405190810160405280929190818152602001828054600181600116156101000203166002900480156104135780601f106103e857610100808354040283529160200191610413565b820191906000526020600020905b8154815290600101906020018083116103f657829003601f168201915b505050505081565b600360009054906101000a900473ffffffffffffffffffffffffffffffffffffffff1681565b600180600381111561044f57fe5b600360149054906101000a900460ff16600381111561046a57fe5b1415156104df576040517f08c379a000000000000000000000000000000000000000000000000000000000815260040180806020018281038252600d8152602001807f496e76616c69642073746174650000000000000000000000000000000000000081525060200191505060405180910390fd5b6000600460003373ffffffffffffffffffffffffffffffffffffffff1673ffffffffffffffffffffffffffffffffffffffff16815260200190815260200160002054111515610596576040517f08c379a00000000000000000000000000000000000000000000000000000000081526004018080602001828103825260178152602001807f4e6f7468696e672077617320636f6e747269627574656400000000000000000081525060200191505060405180910390fd5b6000600460003373ffffffffffffffffffffffffffffffffffffffff1673ffffffffffffffffffffffffffffffffffffffff1681526020019081526020016000205490506000600460003373ffffffffffffffffffffffffffffffffffffffff1673ffffffffffffffffffffffffffffffffffffffff168152602001908152602001600020819055503373ffffffffffffffffffffffffffffffffffffffff166108fc829081150290604051600060405180830381858888f19350505050151561069f5780600460003373ffffffffffffffffffffffffffffffffffffffff1673ffffffffffffffffffffffffffffffffffffffff168152602001908152602001600020819055505b5050565b60046020528060005260406000206000915090505481565b60006002546106c8610c51565b10905090565b60025481565b600560009054906101000a900460ff1681565b60015481565b600360149054906101000a900460ff1681565b600080600381111561070e57fe5b600360149054906101000a900460ff16600381111561072957fe5b14151561079e576040517f08c379a000000000000000000000000000000000000000000000000000000000815260040180806020018281038252600d8152602001807f496e76616c69642073746174650000000000000000000000000000000000000081525060200191505060405180910390fd5b6107a66106bb565b1515610840576040517f08c379a00000000000000000000000000000000000000000000000000000000081526004018080602001828103825260228152602001807f4e6f20636f6e747269627574696f6e7320616665722074686520646561646c6981526020017f6e6500000000000000000000000000000000000000000000000000000000000081525060400191505060405180910390fd5b34600460003373ffffffffffffffffffffffffffffffffffffffff1673ffffffffffffffffffffffffffffffffffffffff16815260200190815260200160002060008282540192505081905550346006600082825401925050819055506001546006541015156108c6576001600560006101000a81548160ff0219169083151502179055505b50565b60065481565b60028060038111156108dd57fe5b600360149054906101000a900460ff1660038111156108f857fe5b14151561096d576040517f08c379a000000000000000000000000000000000000000000000000000000000815260040180806020018281038252600d8152602001807f496e76616c69642073746174650000000000000000000000000000000000000081525060200191505060405180910390fd5b6000600360009054906101000a900473ffffffffffffffffffffffffffffffffffffffff1690508073ffffffffffffffffffffffffffffffffffffffff166108fc6006549081150290604051600060405180830381858888f19350505050156109f85760038060146101000a81548160ff021916908360038111156109ee57fe5b0217905550610a1d565b6001600360146101000a81548160ff02191690836003811115610a1757fe5b02179055505b5050565b6000806003811115610a2f57fe5b600360149054906101000a900460ff166003811115610a4a57fe5b141515610abf576040517f08c379a000000000000000000000000000000000000000000000000000000000815260040180806020018281038252600d8152602001807f496e76616c69642073746174650000000000000000000000000000000000000081525060200191505060405180910390fd5b610ac76106bb565b151515610b62576040517f08c379a00000000000000000000000000000000000000000000000000000000081526004018080602001828103825260288152602001807f43616e6e6f742066696e6973682063616d706169676e206265666f726520612081526020017f646561646c696e6500000000000000000000000000000000000000000000000081525060400191505060405180910390fd5b600560009054906101000a900460ff161515610ba1576001600360146101000a81548160ff02191690836003811115610b9757fe5b0217905550610bc6565b6002600360146101000a81548160ff02191690836003811115610bc057fe5b02179055505b7f6fa7e87ebbd87ed4f1c40bba63144f68fd2bb022fb748ab3b61b5411c39bd47430600654600560009054906101000a900460ff16604051808473ffffffffffffffffffffffffffffffffffffffff1673ffffffffffffffffffffffffffffffffffffffff16815260200183815260200182151515158152602001935050505060405180910390a150565b60004290509056fea165627a7a7230582023e7327341b86505279838fac7851db4762ebc262be66d80ced10b298971e1ad0029",
  "source": "pragma solidity >=0.4.21 <0.6.0;\r\n\r\nimport \"./Utils.sol\";\r\n\r\ncontract CrowdFundingWithDeadline{\r\n\r\n    using Utils for *;\r\n    enum State { Ongoing, Failed, Succeeded , PaidOut}\r\n\r\n    event CampaignFinished(\r\n        address addr,\r\n        uint totalCollected,\r\n        bool succeeded\r\n    );\r\n\r\n    string public name;\r\n    uint public targetAmount;\r\n    uint public fundingDeadline;\r\n    address public beneficiary;\r\n    State public state;\r\n    mapping(address => uint) public amounts;\r\n    bool public collected;\r\n    uint public totalCollected;\r\n\r\n    modifier inState(State expectedState){\r\n        require(state == expectedState,\"Invalid state\");\r\n        _;\r\n    }\r\n\r\n    constructor(\r\n        string memory contractName,\r\n        uint targetAmountEth,\r\n        uint durationInMin,\r\n        address beneficiaryAddress\r\n    )\r\n\r\n    public {\r\n        name = contractName;\r\n        targetAmount = Utils.etherToWei(targetAmount);\r\n        fundingDeadline = currentTime() + Utils.minutesToSeconds(durationInMin);\r\n        beneficiary = beneficiaryAddress;\r\n        state = State.Ongoing;\r\n    }\r\n\r\n    function contribute() public payable inState(State.Ongoing){\r\n        require(beforeDeadline(), \"No contributions afer the deadline\");\r\n        amounts[msg.sender] += msg.value;\r\n        totalCollected += msg.value;\r\n\r\n        if(totalCollected >= targetAmount){\r\n            collected = true;\r\n        }\r\n    } \r\n\r\n    function finishedCrowdFunding() public inState(State.Ongoing){\r\n        require(!beforeDeadline(), \"Cannot finish campaign before a deadline\");\r\n\r\n        if(!collected){\r\n            state = State.Failed;\r\n        }else{\r\n            state = State.Succeeded;\r\n        }\r\n\r\n        emit CampaignFinished(address(this), totalCollected, collected);\r\n    }\r\n\r\n    function collect() public inState(State.Succeeded){\r\n        address payable beneficiary_payable_addr=address(uint160(beneficiary));\r\n        if(beneficiary_payable_addr.send(totalCollected)){\r\n            state = State.PaidOut;\r\n        }else{\r\n            state = State.Failed;\r\n        }\r\n    }\r\n\r\n    function withdraw() public inState(State.Failed){\r\n        require(amounts[msg.sender] > 0, \"Nothing was contributed\");\r\n        uint contributed = amounts[msg.sender];\r\n        amounts[msg.sender] = 0;\r\n\r\n        if(!msg.sender.send(contributed)){\r\n            amounts[msg.sender] = contributed;\r\n        }\r\n    }\r\n\r\n    function beforeDeadline() public view returns(bool){\r\n        return currentTime() < fundingDeadline;\r\n    }\r\n\r\n    function currentTime() internal view returns(uint){\r\n        return now;\r\n    }\r\n}",
  "sourcePath": "C:\\Users\\pridh\\Desktop\\Incentive-systems-for-social-behavioral-change\\contracts\\CrowdFundingWithDeadline.sol",
  "compiler": {
    "name": "solc",
    "version": "0.5.0+commit.1d4f565a.Emscripten.clang"
  },
  "schemaVersion": "3.0.8",
  "updatedAt": "2019-05-14T16:10:17.557Z",
  "devdoc": {
    "methods": {}
  },
  "userdoc": {
    "methods": {}
  }
}