{
  "contractName": "TestCrowdFundingWithDeadline",
  "abi": [
    {
      "constant": true,
      "inputs": [],
      "name": "name",
      "outputs": [
        {
          "name": "",
          "type": "string"
        }
      ],
      "payable": false,
      "stateMutability": "view",
      "type": "function"
    },
    {
      "constant": true,
      "inputs": [],
      "name": "beneficiary",
      "outputs": [
        {
          "name": "",
          "type": "address"
        }
      ],
      "payable": false,
      "stateMutability": "view",
      "type": "function"
    },
    {
      "constant": false,
      "inputs": [],
      "name": "withdraw",
      "outputs": [],
      "payable": false,
      "stateMutability": "nonpayable",
      "type": "function"
    },
    {
      "constant": true,
      "inputs": [
        {
          "name": "",
          "type": "address"
        }
      ],
      "name": "amounts",
      "outputs": [
        {
          "name": "",
          "type": "uint256"
        }
      ],
      "payable": false,
      "stateMutability": "view",
      "type": "function"
    },
    {
      "constant": true,
      "inputs": [],
      "name": "beforeDeadline",
      "outputs": [
        {
          "name": "",
          "type": "bool"
        }
      ],
      "payable": false,
      "stateMutability": "view",
      "type": "function"
    },
    {
      "constant": true,
      "inputs": [],
      "name": "fundingDeadline",
      "outputs": [
        {
          "name": "",
          "type": "uint256"
        }
      ],
      "payable": false,
      "stateMutability": "view",
      "type": "function"
    },
    {
      "constant": true,
      "inputs": [],
      "name": "collected",
      "outputs": [
        {
          "name": "",
          "type": "bool"
        }
      ],
      "payable": false,
      "stateMutability": "view",
      "type": "function"
    },
    {
      "constant": true,
      "inputs": [],
      "name": "targetAmount",
      "outputs": [
        {
          "name": "",
          "type": "uint256"
        }
      ],
      "payable": false,
      "stateMutability": "view",
      "type": "function"
    },
    {
      "constant": true,
      "inputs": [],
      "name": "state",
      "outputs": [
        {
          "name": "",
          "type": "uint8"
        }
      ],
      "payable": false,
      "stateMutability": "view",
      "type": "function"
    },
    {
      "constant": false,
      "inputs": [],
      "name": "contribute",
      "outputs": [],
      "payable": true,
      "stateMutability": "payable",
      "type": "function"
    },
    {
      "constant": true,
      "inputs": [],
      "name": "totalCollected",
      "outputs": [
        {
          "name": "",
          "type": "uint256"
        }
      ],
      "payable": false,
      "stateMutability": "view",
      "type": "function"
    },
    {
      "constant": false,
      "inputs": [],
      "name": "collect",
      "outputs": [],
      "payable": false,
      "stateMutability": "nonpayable",
      "type": "function"
    },
    {
      "constant": false,
      "inputs": [],
      "name": "finishedCrowdFunding",
      "outputs": [],
      "payable": false,
      "stateMutability": "nonpayable",
      "type": "function"
    },
    {
      "inputs": [
        {
          "name": "contractName",
          "type": "string"
        },
        {
          "name": "targetAmountEth",
          "type": "uint256"
        },
        {
          "name": "durationInMin",
          "type": "uint256"
        },
        {
          "name": "beneficiaryAddress",
          "type": "address"
        }
      ],
      "payable": false,
      "stateMutability": "nonpayable",
      "type": "constructor"
    },
    {
      "anonymous": false,
      "inputs": [
        {
          "indexed": false,
          "name": "addr",
          "type": "address"
        },
        {
          "indexed": false,
          "name": "totalCollected",
          "type": "uint256"
        },
        {
          "indexed": false,
          "name": "succeeded",
          "type": "bool"
        }
      ],
      "name": "CampaignFinished",
      "type": "event"
    },
    {
      "constant": false,
      "inputs": [
        {
          "name": "newTime",
          "type": "uint256"
        }
      ],
      "name": "setCurrentTime",
      "outputs": [],
      "payable": false,
      "stateMutability": "nonpayable",
      "type": "function"
    }
  ],
  "bytecode": "0x60806040523480156200001157600080fd5b506040516200105938038062001059833981018060405260808110156200003757600080fd5b8101908080516401000000008111156200005057600080fd5b828101905060208101848111156200006757600080fd5b81518560018202830111640100000000821117156200008557600080fd5b5050929190602001805190602001909291908051906020019092919080519060200190929190505050838383838360009080519060200190620000ca929190620002c3565b5073__Utils_________________________________63d8916bb96001546040518263ffffffff167c01000000000000000000000000000000000000000000000000000000000281526004018082815260200191505060206040518083038186803b1580156200013957600080fd5b505af41580156200014e573d6000803e3d6000fd5b505050506040513d60208110156200016557600080fd5b810190808051906020019092919050505060018190555073__Utils_________________________________63529b380f836040518263ffffffff167c01000000000000000000000000000000000000000000000000000000000281526004018082815260200191505060206040518083038186803b158015620001e857600080fd5b505af4158015620001fd573d6000803e3d6000fd5b505050506040513d60208110156200021457600080fd5b81019080805190602001909291905050506200023e620002b9640100000000026401000000009004565b0160028190555080600360006101000a81548173ffffffffffffffffffffffffffffffffffffffff021916908373ffffffffffffffffffffffffffffffffffffffff1602179055506000600360146101000a81548160ff02191690836003811115620002a657fe5b0217905550505050505050505062000372565b6000600754905090565b828054600181600116156101000203166002900490600052602060002090601f016020900481019282601f106200030657805160ff191683800117855562000337565b8280016001018555821562000337579182015b828111156200033657825182559160200191906001019062000319565b5b5090506200034691906200034a565b5090565b6200036f91905b808211156200036b57600081600090555060010162000351565b5090565b90565b610cd780620003826000396000f3fe6080604052600436106100d0576000357c0100000000000000000000000000000000000000000000000000000000900463ffffffff16806306fdde03146100d557806322f8e5661461016557806338af3eed146101a05780633ccfd60b146101f757806355a3b2c11461020e57806368bc004114610273578063796b23bb146102a257806384bcefd4146102cd578063953b8fb8146102fc578063c19d93fb14610327578063d7bb99ba14610360578063e29eb8361461036a578063e522538114610395578063f5bfd26d146103ac575b600080fd5b3480156100e157600080fd5b506100ea6103c3565b6040518080602001828103825283818151815260200191508051906020019080838360005b8381101561012a57808201518184015260208101905061010f565b50505050905090810190601f1680156101575780820380516001836020036101000a031916815260200191505b509250505060405180910390f35b34801561017157600080fd5b5061019e6004803603602081101561018857600080fd5b8101908080359060200190929190505050610461565b005b3480156101ac57600080fd5b506101b561046b565b604051808273ffffffffffffffffffffffffffffffffffffffff1673ffffffffffffffffffffffffffffffffffffffff16815260200191505060405180910390f35b34801561020357600080fd5b5061020c610491565b005b34801561021a57600080fd5b5061025d6004803603602081101561023157600080fd5b81019080803573ffffffffffffffffffffffffffffffffffffffff1690602001909291905050506106f3565b6040518082815260200191505060405180910390f35b34801561027f57600080fd5b5061028861070b565b604051808215151515815260200191505060405180910390f35b3480156102ae57600080fd5b506102b761071e565b6040518082815260200191505060405180910390f35b3480156102d957600080fd5b506102e2610724565b604051808215151515815260200191505060405180910390f35b34801561030857600080fd5b50610311610737565b6040518082815260200191505060405180910390f35b34801561033357600080fd5b5061033c61073d565b6040518082600381111561034c57fe5b60ff16815260200191505060405180910390f35b610368610750565b005b34801561037657600080fd5b5061037f610919565b6040518082815260200191505060405180910390f35b3480156103a157600080fd5b506103aa61091f565b005b3480156103b857600080fd5b506103c1610a71565b005b60008054600181600116156101000203166002900480601f0160208091040260200160405190810160405280929190818152602001828054600181600116156101000203166002900480156104595780601f1061042e57610100808354040283529160200191610459565b820191906000526020600020905b81548152906001019060200180831161043c57829003601f168201915b505050505081565b8060078190555050565b600360009054906101000a900473ffffffffffffffffffffffffffffffffffffffff1681565b600180600381111561049f57fe5b600360149054906101000a900460ff1660038111156104ba57fe5b14151561052f576040517f08c379a000000000000000000000000000000000000000000000000000000000815260040180806020018281038252600d8152602001807f496e76616c69642073746174650000000000000000000000000000000000000081525060200191505060405180910390fd5b6000600460003373ffffffffffffffffffffffffffffffffffffffff1673ffffffffffffffffffffffffffffffffffffffff168152602001908152602001600020541115156105e6576040517f08c379a00000000000000000000000000000000000000000000000000000000081526004018080602001828103825260178152602001807f4e6f7468696e672077617320636f6e747269627574656400000000000000000081525060200191505060405180910390fd5b6000600460003373ffffffffffffffffffffffffffffffffffffffff1673ffffffffffffffffffffffffffffffffffffffff1681526020019081526020016000205490506000600460003373ffffffffffffffffffffffffffffffffffffffff1673ffffffffffffffffffffffffffffffffffffffff168152602001908152602001600020819055503373ffffffffffffffffffffffffffffffffffffffff166108fc829081150290604051600060405180830381858888f1935050505015156106ef5780600460003373ffffffffffffffffffffffffffffffffffffffff1673ffffffffffffffffffffffffffffffffffffffff168152602001908152602001600020819055505b5050565b60046020528060005260406000206000915090505481565b6000600254610718610ca1565b10905090565b60025481565b600560009054906101000a900460ff1681565b60015481565b600360149054906101000a900460ff1681565b600080600381111561075e57fe5b600360149054906101000a900460ff16600381111561077957fe5b1415156107ee576040517f08c379a000000000000000000000000000000000000000000000000000000000815260040180806020018281038252600d8152602001807f496e76616c69642073746174650000000000000000000000000000000000000081525060200191505060405180910390fd5b6107f661070b565b1515610890576040517f08c379a00000000000000000000000000000000000000000000000000000000081526004018080602001828103825260228152602001807f4e6f20636f6e747269627574696f6e7320616665722074686520646561646c6981526020017f6e6500000000000000000000000000000000000000000000000000000000000081525060400191505060405180910390fd5b34600460003373ffffffffffffffffffffffffffffffffffffffff1673ffffffffffffffffffffffffffffffffffffffff1681526020019081526020016000206000828254019250508190555034600660008282540192505081905550600154600654101515610916576001600560006101000a81548160ff0219169083151502179055505b50565b60065481565b600280600381111561092d57fe5b600360149054906101000a900460ff16600381111561094857fe5b1415156109bd576040517f08c379a000000000000000000000000000000000000000000000000000000000815260040180806020018281038252600d8152602001807f496e76616c69642073746174650000000000000000000000000000000000000081525060200191505060405180910390fd5b6000600360009054906101000a900473ffffffffffffffffffffffffffffffffffffffff1690508073ffffffffffffffffffffffffffffffffffffffff166108fc6006549081150290604051600060405180830381858888f1935050505015610a485760038060146101000a81548160ff02191690836003811115610a3e57fe5b0217905550610a6d565b6001600360146101000a81548160ff02191690836003811115610a6757fe5b02179055505b5050565b6000806003811115610a7f57fe5b600360149054906101000a900460ff166003811115610a9a57fe5b141515610b0f576040517f08c379a000000000000000000000000000000000000000000000000000000000815260040180806020018281038252600d8152602001807f496e76616c69642073746174650000000000000000000000000000000000000081525060200191505060405180910390fd5b610b1761070b565b151515610bb2576040517f08c379a00000000000000000000000000000000000000000000000000000000081526004018080602001828103825260288152602001807f43616e6e6f742066696e6973682063616d706169676e206265666f726520612081526020017f646561646c696e6500000000000000000000000000000000000000000000000081525060400191505060405180910390fd5b600560009054906101000a900460ff161515610bf1576001600360146101000a81548160ff02191690836003811115610be757fe5b0217905550610c16565b6002600360146101000a81548160ff02191690836003811115610c1057fe5b02179055505b7f6fa7e87ebbd87ed4f1c40bba63144f68fd2bb022fb748ab3b61b5411c39bd47430600654600560009054906101000a900460ff16604051808473ffffffffffffffffffffffffffffffffffffffff1673ffffffffffffffffffffffffffffffffffffffff16815260200183815260200182151515158152602001935050505060405180910390a150565b600060075490509056fea165627a7a72305820875384e579bfc62dce15adca75c3fc923442f00dc5d9aade8f1b2dbb609770090029",
  "source": "pragma solidity >=0.4.21 <0.6.0;\r\nimport \"./CrowdFundingWithDeadline.sol\";\r\n\r\ncontract TestCrowdFundingWithDeadline is CrowdFundingWithDeadline {\r\n    uint time;\r\n\r\n    constructor(\r\n        string memory contractName,\r\n        uint targetAmountEth,\r\n        uint durationInMin,\r\n        address beneficiaryAddress\r\n    )\r\n\r\n    CrowdFundingWithDeadline(contractName,targetAmountEth,durationInMin,beneficiaryAddress) public {\r\n\r\n    }\r\n\r\n\r\n    function currentTime() internal view returns(uint){\r\n        return time;\r\n    }\r\n\r\n    function setCurrentTime(uint newTime) public{\r\n        time = newTime;\r\n    }\r\n}\r\n\r\n",
  "sourcePath": "C:/Users/pridh/Desktop/Incentive-systems-for-social-behavioral-change/contracts/TestCrowdFundingWithDeadline.sol",
  "compiler": {
    "name": "solc",
    "version": "0.5.0+commit.1d4f565a.Emscripten.clang"
  },
  "schemaVersion": "3.0.8",
  "updatedAt": "2019-05-14T16:10:17.564Z",
  "devdoc": {
    "methods": {}
  },
  "userdoc": {
    "methods": {}
  }
}