{
  "contractName": "Utils",
  "abi": [
    {
      "constant": true,
      "inputs": [
        {
          "name": "sumInEth",
          "type": "uint256"
        }
      ],
      "name": "etherToWei",
      "outputs": [
        {
          "name": "",
          "type": "uint256"
        }
      ],
      "payable": false,
      "stateMutability": "pure",
      "type": "function"
    },
    {
      "constant": true,
      "inputs": [
        {
          "name": "timeInMin",
          "type": "uint256"
        }
      ],
      "name": "minutesToSeconds",
      "outputs": [
        {
          "name": "",
          "type": "uint256"
        }
      ],
      "payable": false,
      "stateMutability": "pure",
      "type": "function"
    }
  ],
  "bytecode": "0x610139610030600b82828239805160001a6073146000811461002057610022565bfe5b5030600052607381538281f3fe7300000000000000000000000000000000000000003014608060405260043610610063576000357c0100000000000000000000000000000000000000000000000000000000900463ffffffff168063529b380f14610068578063d8916bb9146100aa575b600080fd5b6100946004803603602081101561007e57600080fd5b81019080803590602001909291905050506100ec565b6040518082815260200191505060405180910390f35b6100d6600480360360208110156100c057600080fd5b81019080803590602001909291905050506100f9565b6040518082815260200191505060405180910390f35b6000603c82029050919050565b6000670de0b6b3a76400008202905091905056fea165627a7a72305820b3302f37aa82e6486899199eb893330ef4bc848962dbefa16c9963801be1c4380029",
  "source": "pragma solidity >=0.4.21 <0.6.0;\r\n\r\nlibrary Utils{\r\n    function etherToWei(uint sumInEth) public pure returns(uint){\r\n        return sumInEth * 1 ether;\r\n    }\r\n\r\n    function minutesToSeconds(uint timeInMin) public pure returns(uint){\r\n        return timeInMin * 1 minutes;\r\n    }\r\n}",
  "sourcePath": "C:\\Users\\pridh\\Desktop\\Incentive-systems-for-social-behavioral-change\\contracts\\Utils.sol",
  "compiler": {
    "name": "solc",
    "version": "0.5.0+commit.1d4f565a.Emscripten.clang"
  },
  "schemaVersion": "3.0.8",
  "updatedAt": "2019-05-14T16:10:17.567Z",
  "devdoc": {
    "methods": {}
  },
  "userdoc": {
    "methods": {}
  }
}